{
  "contractName": "KingOfTheEtherThrone",
  "abi": [
    {
      "constant": true,
      "inputs": [],
      "name": "currentClaimPrice",
      "outputs": [
        {
          "name": "",
          "type": "uint256"
        }
      ],
      "payable": false,
      "stateMutability": "view",
      "type": "function"
    },
    {
      "constant": true,
      "inputs": [
        {
          "name": "",
          "type": "uint256"
        }
      ],
      "name": "pastMonarchs",
      "outputs": [
        {
          "name": "etherAddress",
          "type": "address"
        },
        {
          "name": "name",
          "type": "string"
        },
        {
          "name": "claimPrice",
          "type": "uint256"
        },
        {
          "name": "coronationTimestamp",
          "type": "uint256"
        }
      ],
      "payable": false,
      "stateMutability": "view",
      "type": "function"
    },
    {
      "constant": true,
      "inputs": [],
      "name": "currentMonarch",
      "outputs": [
        {
          "name": "etherAddress",
          "type": "address"
        },
        {
          "name": "name",
          "type": "string"
        },
        {
          "name": "claimPrice",
          "type": "uint256"
        },
        {
          "name": "coronationTimestamp",
          "type": "uint256"
        }
      ],
      "payable": false,
      "stateMutability": "view",
      "type": "function"
    },
    {
      "inputs": [],
      "payable": false,
      "stateMutability": "nonpayable",
      "type": "constructor"
    },
    {
      "payable": true,
      "stateMutability": "payable",
      "type": "fallback"
    },
    {
      "anonymous": false,
      "inputs": [
        {
          "indexed": false,
          "name": "usurperEtherAddress",
          "type": "address"
        },
        {
          "indexed": false,
          "name": "usurperName",
          "type": "string"
        },
        {
          "indexed": false,
          "name": "newClaimPrice",
          "type": "uint256"
        }
      ],
      "name": "ThroneClaimed",
      "type": "event"
    },
    {
      "constant": true,
      "inputs": [],
      "name": "numberOfMonarchs",
      "outputs": [
        {
          "name": "n",
          "type": "uint256"
        }
      ],
      "payable": false,
      "stateMutability": "view",
      "type": "function"
    },
    {
      "constant": false,
      "inputs": [
        {
          "name": "amount",
          "type": "uint256"
        }
      ],
      "name": "sweepCommission",
      "outputs": [],
      "payable": false,
      "stateMutability": "nonpayable",
      "type": "function"
    },
    {
      "constant": false,
      "inputs": [
        {
          "name": "newOwner",
          "type": "address"
        }
      ],
      "name": "transferOwnership",
      "outputs": [],
      "payable": false,
      "stateMutability": "nonpayable",
      "type": "function"
    },
    {
      "constant": false,
      "inputs": [],
      "name": "printing",
      "outputs": [],
      "payable": false,
      "stateMutability": "nonpayable",
      "type": "function"
    }
  ],
  "bytecode": "0x608060405234801561001057600080fd5b50336000806101000a81548173ffffffffffffffffffffffffffffffffffffffff021916908373ffffffffffffffffffffffffffffffffffffffff16021790555067016345785d8a000060018190555060405180608001604052806000809054906101000a900473ffffffffffffffffffffffffffffffffffffffff1673ffffffffffffffffffffffffffffffffffffffff1681526020016040518060400160405280600881526020017f5b566163616e745d00000000000000000000000000000000000000000000000081525081526020016000815260200142815250600260008201518160000160006101000a81548173ffffffffffffffffffffffffffffffffffffffff021916908373ffffffffffffffffffffffffffffffffffffffff1602179055506020820151816001019080519060200190610153929190610170565b506040820151816002015560608201518160030155905050610215565b828054600181600116156101000203166002900490600052602060002090601f016020900481019282601f106101b157805160ff19168380011785556101df565b828001600101855582156101df579182015b828111156101de5782518255916020019190600101906101c3565b5b5090506101ec91906101f0565b5090565b61021291905b8082111561020e5760008160009055506001016101f6565b5090565b90565b610e36806102246000396000f3fe6080604052600436106100705760003560e01c8063c8fdc8911161004e578063c8fdc8911461021b578063e40d0ac314610246578063f2fde38b14610317578063f90eaca91461036857610070565b80630eb3f5a0146100c057806364325ddb146100fb5780637842c52d14610126575b6100be6000368080601f016020809104026020016040519081016040528093929190818152602001838380828437600081840152601f19601f8201169050808301925050505050505061037f565b005b3480156100cc57600080fd5b506100f9600480360360208110156100e357600080fd5b8101908080359060200190929190505050610941565b005b34801561010757600080fd5b506101106109f1565b6040518082815260200191505060405180910390f35b34801561013257600080fd5b5061015f6004803603602081101561014957600080fd5b81019080803590602001909291905050506109f7565b604051808573ffffffffffffffffffffffffffffffffffffffff1673ffffffffffffffffffffffffffffffffffffffff16815260200180602001848152602001838152602001828103825285818151815260200191508051906020019080838360005b838110156101dd5780820151818401526020810190506101c2565b50505050905090810190601f16801561020a5780820380516001836020036101000a031916815260200191505b509550505050505060405180910390f35b34801561022757600080fd5b50610230610aec565b6040518082815260200191505060405180910390f35b34801561025257600080fd5b5061025b610af9565b604051808573ffffffffffffffffffffffffffffffffffffffff1673ffffffffffffffffffffffffffffffffffffffff16815260200180602001848152602001838152602001828103825285818151815260200191508051906020019080838360005b838110156102d95780820151818401526020810190506102be565b50505050905090810190601f1680156103065780820380516001836020036101000a031916815260200191505b509550505050505060405180910390f35b34801561032357600080fd5b506103666004803603602081101561033a57600080fd5b81019080803573ffffffffffffffffffffffffffffffffffffffff169060200190929190505050610bcf565b005b34801561037457600080fd5b5061037d610c68565b005b60003490506001548110156103ca573373ffffffffffffffffffffffffffffffffffffffff166108fc829081150290604051600060405180830381858888f19350505050505061093e565b60015481111561041a576000600154820390503373ffffffffffffffffffffffffffffffffffffffff166108fc829081150290604051600060405180830381858888f19350505050508082039150505b60006064600183028161042957fe5b049050600081830390506000809054906101000a900473ffffffffffffffffffffffffffffffffffffffff1673ffffffffffffffffffffffffffffffffffffffff16600260000160009054906101000a900473ffffffffffffffffffffffffffffffffffffffff1673ffffffffffffffffffffffffffffffffffffffff161461050c57600260000160009054906101000a900473ffffffffffffffffffffffffffffffffffffffff1673ffffffffffffffffffffffffffffffffffffffff166108fc829081150290604051600060405180830381858888f193505050505061050d565b5b60066002908060018154018082558091505090600182039060005260206000209060040201600090919290919091506000820160009054906101000a900473ffffffffffffffffffffffffffffffffffffffff168160000160006101000a81548173ffffffffffffffffffffffffffffffffffffffff021916908373ffffffffffffffffffffffffffffffffffffffff160217905550600182018160010190805460018160011615610100020316600290046105ca929190610cde565b50600282015481600201556003820154816003015550505060405180608001604052803373ffffffffffffffffffffffffffffffffffffffff16815260200185815260200184815260200142815250600260008201518160000160006101000a81548173ffffffffffffffffffffffffffffffffffffffff021916908373ffffffffffffffffffffffffffffffffffffffff160217905550602082015181600101908051906020019061067e929190610d65565b50604082015181600201556060820151816003015590505060006002600360015402816106a757fe5b049050662386f26fc100008110156106c55780600181905550610819565b67016345785d8a00008110156106f857655af3107a400081816106e457fe5b04655af3107a400002600181905550610818565b670de0b6b3a764000081101561072d5766038d7ea4c68000818161071857fe5b0466038d7ea4c6800002600181905550610817565b678ac7230489e8000081101561076257662386f26fc10000818161074d57fe5b04662386f26fc1000002600181905550610816565b68056bc75e2d6310000081101561079a5767016345785d8a0000818161078457fe5b0467016345785d8a000002600181905550610815565b683635c9adc5dea000008110156107d257670de0b6b3a764000081816107bc57fe5b04670de0b6b3a764000002600181905550610814565b69021e19e0c9bab240000081101561080b57678ac7230489e8000081816107f557fe5b04678ac7230489e8000002600181905550610813565b806001819055505b5b5b5b5b5b5b7f66dd2fa17295ffce5da0fb78b9a7146bc2c19cfbab9752e98fd016cfde14e0de600260000160009054906101000a900473ffffffffffffffffffffffffffffffffffffffff166002600101600154604051808473ffffffffffffffffffffffffffffffffffffffff1673ffffffffffffffffffffffffffffffffffffffff168152602001806020018381526020018281038252848181546001816001161561010002031660029004815260200191508054600181600116156101000203166002900480156109295780601f106108fe57610100808354040283529160200191610929565b820191906000526020600020905b81548152906001019060200180831161090c57829003601f168201915b505094505050505060405180910390a1505050505b50565b6000809054906101000a900473ffffffffffffffffffffffffffffffffffffffff1673ffffffffffffffffffffffffffffffffffffffff163373ffffffffffffffffffffffffffffffffffffffff1614156109ee576000809054906101000a900473ffffffffffffffffffffffffffffffffffffffff1673ffffffffffffffffffffffffffffffffffffffff166108fc829081150290604051600060405180830381858888f19350505050505b50565b60015481565b60068181548110610a0457fe5b90600052602060002090600402016000915090508060000160009054906101000a900473ffffffffffffffffffffffffffffffffffffffff1690806001018054600181600116156101000203166002900480601f016020809104026020016040519081016040528092919081815260200182805460018160011615610100020316600290048015610ad65780601f10610aab57610100808354040283529160200191610ad6565b820191906000526020600020905b815481529060010190602001808311610ab957829003601f168201915b5050505050908060020154908060030154905084565b6000600680549050905090565b60028060000160009054906101000a900473ffffffffffffffffffffffffffffffffffffffff1690806001018054600181600116156101000203166002900480601f016020809104026020016040519081016040528092919081815260200182805460018160011615610100020316600290048015610bb95780601f10610b8e57610100808354040283529160200191610bb9565b820191906000526020600020905b815481529060010190602001808311610b9c57829003601f168201915b5050505050908060020154908060030154905084565b6000809054906101000a900473ffffffffffffffffffffffffffffffffffffffff1673ffffffffffffffffffffffffffffffffffffffff163373ffffffffffffffffffffffffffffffffffffffff161415610c6557806000806101000a81548173ffffffffffffffffffffffffffffffffffffffff021916908373ffffffffffffffffffffffffffffffffffffffff1602179055505b50565b6000610cdc576040517f08c379a00000000000000000000000000000000000000000000000000000000081526004018080602001828103825260178152602001807f6d65737361676520746f20626520646973706c6179656400000000000000000081525060200191505060405180910390fd5b565b828054600181600116156101000203166002900490600052602060002090601f016020900481019282601f10610d175780548555610d54565b82800160010185558215610d5457600052602060002091601f016020900482015b82811115610d53578254825591600101919060010190610d38565b5b509050610d619190610de5565b5090565b828054600181600116156101000203166002900490600052602060002090601f016020900481019282601f10610da657805160ff1916838001178555610dd4565b82800160010185558215610dd4579182015b82811115610dd3578251825591602001919060010190610db8565b5b509050610de19190610de5565b5090565b610e0791905b80821115610e03576000816000905550600101610deb565b5090565b9056fea165627a7a723058200cb116c3ba5cee6096a908c8ef71bae0d9cbcf6096c2baab099d5f64e9fc8bcc0029",
  "source": "pragma solidity ^0.5.0;\n\ncontract KingOfTheEtherThrone {\n\n    struct Monarch {\n        // Address to which their compensation will be sent.\n        address payable etherAddress;\n        // A name by which they wish to be known.\n        // NB: Unfortunately \"string\" seems to expose some bugs in web3.\n        string name;\n        // How much did they pay to become monarch?\n        uint claimPrice;\n        // When did their rule start (based on block.timestamp)?\n        uint coronationTimestamp;\n    }\n\n    // The wizard is the hidden power behind the throne; they\n    // occupy the throne during gaps in succession and collect fees.\n    address payable wizardAddress;\n\n    // Used to ensure only the wizard can do some things.\n    modifier onlywizard { if (msg.sender == wizardAddress) _; }\n\n    // How much must the first monarch pay?\n    uint constant startingClaimPrice = 100 finney;\n\n    // The next claimPrice is calculated from the previous claimFee\n    // by multiplying by claimFeeAdjustNum and dividing by claimFeeAdjustDen -\n    // for example, num=3 and den=2 would cause a 50% increase.\n    uint constant claimPriceAdjustNum = 3;\n    uint constant claimPriceAdjustDen = 2;\n\n    // How much of each claimFee goes to the wizard (expressed as a fraction)?\n    // e.g. num=1 and den=100 would deduct 1% for the wizard, leaving 99% as\n    // the compensation fee for the usurped monarch.\n    uint constant wizardCommissionFractionNum = 1;\n    uint constant wizardCommissionFractionDen = 100;\n\n    // How much must an agent pay now to become the monarch?\n    uint public currentClaimPrice;\n\n    // The King (or Queen) of the Ether.\n    Monarch public currentMonarch;\n\n    // Earliest-first list of previous throne holders.\n    Monarch[] public pastMonarchs;\n\n    // Create a new throne, with the creator as wizard and first ruler.\n    // Sets up some hopefully sensible defaults.\n    constructor() public {\n        wizardAddress = msg.sender;\n        currentClaimPrice = startingClaimPrice;\n        currentMonarch = Monarch(\n            wizardAddress,\n            \"[Vacant]\",\n            0,\n            block.timestamp\n        );\n    }\n\n    function numberOfMonarchs() public view returns (uint n) {\n        return pastMonarchs.length;\n    }\n\n    // Fired when the throne is claimed.\n    // In theory can be used to help build a front-end.\n    event ThroneClaimed(\n        address usurperEtherAddress,\n        string usurperName,\n        uint newClaimPrice\n    );\n\n    // Fallback function - simple transactions trigger this.\n    // Assume the message data is their desired name.\n    function() external payable {\n        claimThrone(string(msg.data));\n    }\n\n    // Claim the throne for the given name by paying the currentClaimFee.\n    function claimThrone(string memory name) private {\n\n        uint valuePaid = msg.value;\n\n        // If they paid too little, reject claim and refund their money.\n        if (valuePaid < currentClaimPrice) {\n            msg.sender.send(valuePaid);\n            return;\n        }\n\n        // If they paid too much, continue with claim but refund the excess.\n        if (valuePaid > currentClaimPrice) {\n            uint excessPaid = valuePaid - currentClaimPrice;\n            msg.sender.send(excessPaid);\n            valuePaid = valuePaid - excessPaid;\n        }\n\n        // The claim price payment goes to the current monarch as compensation\n        // (with a commission held back for the wizard). We let the wizard's\n        // payments accumulate to avoid wasting gas sending small fees.\n\n        uint wizardCommission = (valuePaid * wizardCommissionFractionNum) / wizardCommissionFractionDen;\n        \n        uint compensation = valuePaid - wizardCommission;\n\n        if (currentMonarch.etherAddress != wizardAddress) {\n            currentMonarch.etherAddress.send(compensation);\n        } else {\n            // When the throne is vacant, the fee accumulates for the wizard.\n        }\n\n        // Usurp the current monarch, replacing them with the new one.\n        pastMonarchs.push(currentMonarch);\n        currentMonarch = Monarch(\n            msg.sender,\n            name,\n            valuePaid,\n            block.timestamp\n        );\n\n        // Increase the claim fee for next time.\n        // Stop number of trailing decimals getting silly - we round it a bit.\n        uint rawNewClaimPrice = currentClaimPrice * claimPriceAdjustNum / claimPriceAdjustDen;\n        if (rawNewClaimPrice < 10 finney) {\n            currentClaimPrice = rawNewClaimPrice;\n        } else if (rawNewClaimPrice < 100 finney) {\n            currentClaimPrice = 100 szabo * (rawNewClaimPrice / 100 szabo);\n        } else if (rawNewClaimPrice < 1 ether) {\n            currentClaimPrice = 1 finney * (rawNewClaimPrice / 1 finney);\n        } else if (rawNewClaimPrice < 10 ether) {\n            currentClaimPrice = 10 finney * (rawNewClaimPrice / 10 finney);\n        } else if (rawNewClaimPrice < 100 ether) {\n            currentClaimPrice = 100 finney * (rawNewClaimPrice / 100 finney);\n        } else if (rawNewClaimPrice < 1000 ether) {\n            currentClaimPrice = 1 ether * (rawNewClaimPrice / 1 ether);\n        } else if (rawNewClaimPrice < 10000 ether) {\n            currentClaimPrice = 10 ether * (rawNewClaimPrice / 10 ether);\n        } else {\n            currentClaimPrice = rawNewClaimPrice;\n        }\n\n        // Hail the new monarch!\n        emit ThroneClaimed(currentMonarch.etherAddress, currentMonarch.name, currentClaimPrice);\n    }\n\n    // Used only by the wizard to collect his commission.\n    function sweepCommission(uint amount) public onlywizard {\n        wizardAddress.send(amount);\n    }\n\n    // Used only by the wizard to collect his commission.\n    function transferOwnership(address payable newOwner) public onlywizard {\n        wizardAddress = newOwner;\n    }\n    function printing() public{\n        require(false, \"message to be displayed\");\n    }\n\n}",
  "sourcePath": "D:/University/3981-2/Final_Project/Contract/KignOfEther/contracts/KingOfTheEtherThrone.sol",
  "compiler": {
    "name": "solc",
    "version": "0.5.8+commit.23d335f2.Emscripten.clang"
  },
  "schemaVersion": "3.0.11",
  "updatedAt": "2020-06-01T12:39:27.778Z",
  "devdoc": {
    "methods": {}
  },
  "userdoc": {
    "methods": {}
  }
}